{
  "address": "0x7c6F40f29C45c6B4E37d1620b8a7568B40913a5a",
  "abi": [
    {
      "inputs": [
        {
          "internalType": "address[]",
          "name": "recipients",
          "type": "address[]"
        },
        {
          "internalType": "uint256[]",
          "name": "values",
          "type": "uint256[]"
        }
      ],
      "name": "disperseEther",
      "outputs": [],
      "stateMutability": "payable",
      "type": "function"
    },
    {
      "inputs": [
        {
          "internalType": "contract IERC20",
          "name": "tokenAddress",
          "type": "address"
        },
        {
          "internalType": "address payable[]",
          "name": "recipients",
          "type": "address[]"
        },
        {
          "internalType": "uint256[]",
          "name": "values",
          "type": "uint256[]"
        }
      ],
      "name": "disperseToken",
      "outputs": [],
      "stateMutability": "nonpayable",
      "type": "function"
    }
  ],
  "transactionHash": "0x83a42f1fadb447e1eae29bfb00c554f1be0d1b1a63fb1753f3257ec0f2eac02e",
  "args": [],
  "numDeployments": 1,
  "solcInputHash": "533c6a1944291223de810cb4d69d3814",
  "bytecode": "0x608060405234801561001057600080fd5b50610630806100206000396000f3fe6080604052600436106100295760003560e01c8063c73a2d601461002e578063e63d38ed14610050575b600080fd5b34801561003a57600080fd5b5061004e61004936600461033b565b610063565b005b61004e61005e366004610494565b610211565b846000805b858110156100a85784848281811061008257610082610556565b90506020020135826100949190610582565b9150806100a08161059b565b915050610068565b506040516323b872dd60e01b8152336004820152306024820152604481018290526001600160a01b038316906323b872dd906064016020604051808303816000875af11580156100fc573d6000803e3d6000fd5b505050506040513d601f19601f8201168201806040525081019061012091906105b4565b61012957600080fd5b60005b8581101561020757826001600160a01b031663a9059cbb88888481811061015557610155610556565b905060200201602081019061016a91906105dd565b87878581811061017c5761017c610556565b6040516001600160e01b031960e087901b1681526001600160a01b03909416600485015260200291909101356024830152506044016020604051808303816000875af11580156101d0573d6000803e3d6000fd5b505050506040513d601f19601f820116820180604052508101906101f491906105b4565b50806101ff8161059b565b91505061012c565b5050505050505050565b60005b825181101561029b5782818151811061022f5761022f610556565b60200260200101516001600160a01b03166108fc83838151811061025557610255610556565b60200260200101519081150290604051600060405180830381858888f19350505050158015610288573d6000803e3d6000fd5b50806102938161059b565b915050610214565b504780156102d257604051339082156108fc029083906000818181858888f193505050501580156102d0573d6000803e3d6000fd5b505b505050565b6001600160a01b03811681146102ec57600080fd5b50565b60008083601f84011261030157600080fd5b50813567ffffffffffffffff81111561031957600080fd5b6020830191508360208260051b850101111561033457600080fd5b9250929050565b60008060008060006060868803121561035357600080fd5b853561035e816102d7565b9450602086013567ffffffffffffffff8082111561037b57600080fd5b61038789838a016102ef565b909650945060408801359150808211156103a057600080fd5b506103ad888289016102ef565b969995985093965092949392505050565b634e487b7160e01b600052604160045260246000fd5b604051601f8201601f1916810167ffffffffffffffff811182821017156103fd576103fd6103be565b604052919050565b600067ffffffffffffffff82111561041f5761041f6103be565b5060051b60200190565b600082601f83011261043a57600080fd5b8135602061044f61044a83610405565b6103d4565b82815260059290921b8401810191818101908684111561046e57600080fd5b8286015b848110156104895780358352918301918301610472565b509695505050505050565b600080604083850312156104a757600080fd5b823567ffffffffffffffff808211156104bf57600080fd5b818501915085601f8301126104d357600080fd5b813560206104e361044a83610405565b82815260059290921b8401810191818101908984111561050257600080fd5b948201945b8386101561052957853561051a816102d7565b82529482019490820190610507565b9650508601359250508082111561053f57600080fd5b5061054c85828601610429565b9150509250929050565b634e487b7160e01b600052603260045260246000fd5b634e487b7160e01b600052601160045260246000fd5b808201808211156105955761059561056c565b92915050565b6000600182016105ad576105ad61056c565b5060010190565b6000602082840312156105c657600080fd5b815180151581146105d657600080fd5b9392505050565b6000602082840312156105ef57600080fd5b81356105d6816102d756fea2646970667358221220bf6622f86e77c5f909ab388acfe994756b85666127ac64d63590250913e4e51464736f6c63430008110033",
  "devdoc": {
    "kind": "dev",
    "methods": {},
    "version": 1
  },
  "userdoc": {
    "kind": "user",
    "methods": {},
    "version": 1
  },
  "storageLayout": {
    "storage": [],
    "types": null
  }
}